S00B000050574D2E7372656325
S113000009C016C015C014C013C012C011C010C05E
S11300100FC00FC011241FBECFE9CDBF20E0A0E662
S1130020B0E001C01D92A236B207E1F73FD050C044
S1130030E7CF1F920F920FB60F9211248F9385B1C1
S1130040809361008F910F900FBE0F901F901895B1
S1130050B1991BC08091600081110CC08FE79BEBAC
S11300600197F1F700C00000B19B0FC08FEF8093A0
S1130070600008958F3F49F48FE79BEB0197F1F7F8
S113008000C00000B1991092600008958091600052
S11300908F3F39F488B3886088BB8091610086BF44
S11300A0089588B3877F88BB16BE089589E087BB0F
S11300B088B3826088BB81E287B98AEE86B913B8B7
S11300C083EC8FBD81E083BF7894C2DFDFDFFDCF97
S10700D0F894FFCFCE
S9030000FC
